:020000040000FA
:040000008A11F12F41
:10057000E8340334F50075088A1193258A11831233
:10058000031305120830F400C930F300F30BC62A38
:10059000F40BC62ACB2A8312031305160800F500B4
:1005A00075088A1193258A118312031305130830E5
:1005B000F400C930F300F30BDB2AF40BDB2AE02A4A
:1005C0008312031305170800F50075088A11932597
:1005D0008A118312031385130830F400C930F30025
:1005E000F30BF02AF40BF02AF52A83120313851774
:1005F0000800F401F501701CFE2AFF2A052B720881
:10060000F4070318F50A7308F50701300310F20D1B
:10061000F30DFF3E031D062B01300310F10CF00C0F
:10062000FF3E031D0D2B70087104031D182B192BA1
:10063000FB2A7508F1007408F0000800F030F000A3
:100640007008831603138505F030F00070088312DC
:1006500003138505A630F000F00B2C2B00000F30A3
:10066000F00070088316031385041530F000F00BBA
:10067000372B0000831203130508F0007008F10007
:100680009530F000F00B422B452B71080800F1016A
:10069000F201F201831603130510831203130510F0
:1006A000512B522B0000831603130514572B582B84
:1006B0000310F10C83120313051C5F2B602B612BBD
:1006C000F1171330F000F00B632B662B0130F000B4
:1006D0007008F20708307202031C6F2B702B4A2B34
:1006E00071080800F100F301FE30F0007008F4001A
:1006F0007108F0007008F200F301721C802B812B4E
:100700009B2B7408F000700883160313850574088A
:10071000F00070088312031385058E2B8F2B0000C9
:100720007409F00070088316031385041730F00075
:10073000F00B982BB42B7408F00070088316031389
:1007400085057408F00070088312031385051730BF
:10075000F000F00BA92B7409F00070088316031346
:100760008504B22BB32B00000310F20C0130F00013
:100770007008F30708307302031CBF2BC02B7D2BBE
:10078000080083120313A101F71FC72BC82BCF2B1F
:10079000F609F709F60A0319F70AA101A10AF91FD8
:1007A000D22BD32BDC2BF809F909F80A0319F90A23
:1007B0000130FA007A08A106A201A30176087704A5
:1007C0000319E32BE42B1B2CA001A00AF22B013010
:1007D0000310F60DF70DFF3E031DE82B0130FA0064
:1007E0007A08A007F71FF52BF62BE72B0130031033
:1007F000A20DA30DFF3E031DF72B77087902031D01
:10080000032C76087802031C062C072C0E2C760885
:10081000F8027708031CF903F902221401300310CF
:10082000F70CF60CFF3E031D0F2C0130A002031D38
:100830001A2C1B2CF62B210803191F2C202C252CDD
:10084000A209A309A20A0319A30A2308F700220890
:10085000F60008000730831203139F000F30831641
:1008600003138500860110308A11BA228A111030D4
:100870008A11CF228A1110308A11E4228A11831240
:10088000031336083704031D462C472C5D2C8A11B0
:100890001E238A110139FD007D0883120313B8005D
:1008A0003808031D542C552C5D2CCC308A11722332
:1008B0008A1144308A1172238A1183120313390377
:1008C000031D632C642C712C12308A11BA228A11F8
:1008D00012308A11CF228A1112308A11E4228A1131
:1008E0008E2CE8303A06033003193B06031D792CA1
:1008F0007A2C872C10308A11BA228A1110308A1172
:10090000CF228A1110308A11E4228A118E2C3B08E2
:10091000A5003A08A4008A1194268A110130831296
:100920000313B6070318B70A0030B7073708803A31
:10093000FF0080307F02031D9F2C33303602031CE2
:10094000A22CA32C3F2C003083120313A400A5007B
:100950008A11B6248A11831203132508BB002408C8
:10096000BA00B601B7013F2C8A1100288312031385
:10097000B5018A111E238A11013983120313A600BF
:100980002608B8003808031DC62CC72C8E2DCC3085
:100990008A1172238A11BE308A1172238A118A1138
:1009A00047238A1183120313A6002608B4008A1174
:1009B00047238A1183120313A6002608B5003508C1
:1009C000A60007300310A60CFF3E031DE22C2608EC
:1009D0000139A7002708B20034080F39A6002608FD
:1009E000B300B40E0F30B405B50EF030B50570305D
:1009F000A6002608B5053408A6002608B504B901E6
:100A00003203031D042D052D522D3508A600A70124
:100A10002608F0002708F100F630F200FF30F3005E
:100A20008A11F9228A11700883120313A800710831
:100A3000A9001030F6000030F7003308AA00AB011F
:100A40002A08F0002B08F1000A30F2000030F30011
:100A50008A11F9228A117108F9007008F8008A11C8
:100A6000C1238A117608831203132802AC00770889
:100A7000031C770A2902AD002C08003EAE002D08A9
:100A80000318013E053EAF00AE09AF09AE0A0319D7
:100A9000AF0A2E08B0002F08B1003108A5003008B9
:100AA000A400922D3508A600A7012608F00027080B
:100AB000F1000A30F2000030F3008A11F9228A11A5
:100AC000700883120313A8007108A9001030F60003
:100AD0000030F7003308AA00AB012A08F0002B0809
:100AE000F1000A30F2000030F3008A11F9228A1175
:100AF0007108F9007008F8008A11C1238A1176087C
:100B0000831203132807B00077080318770A290710
:100B1000B1003108A5003008A400922DB901B90A2E
:100B2000A401A5010800F200532E8312031306103E
:100B3000861006118611061286120613932E831252
:100B40000313061086100611861106128612061768
:100B5000932E8312031306148614061586150616A3
:100B600086160613932E8312031306108614061599
:100B70008611061286120613932E8312031306148F
:100B8000861406118615061686120617932E8312F2
:100B90000313061486140615861506128612061708
:100BA000932E83120313061086140615861106125F
:100BB00086160617932E8312031306148610061545
:100BC0008615061286160617932E83120313061433
:100BD000861006158615061686160617932E83129E
:100BE00003130614861406158611061286120613C0
:100BF000932E831203130614861406158615061603
:100C000086160617932E83120313061486140615F0
:100C10008615061286160617932E831203130614E2
:100C2000861406158611061686160617932E83124D
:100C30000313061086140615861506168612061767
:100C4000932E8312031306148614061186110612BE
:100C500086160617932E83120313061086100615A8
:100C60008611061686160617932E83120313061096
:100C7000861006158615061686120617932E831201
:100C8000031306108610061186150616861606171B
:100C9000932E83120313061486100611861506166A
:100CA00086160617932E7208F000F1017108003ABB
:100CB00003195B2E492E7008003A0319A92D013A39
:100CC0000319B32D033A0319BD2D013A0319C72D9A
:100CD000073A0319D12D013A0319DB2D033A031901
:100CE000E52D013A0319EF2D0F3A0319F92D013AB9
:100CF0000319032E033A03190D2E013A0319172E77
:100D0000073A0319212E013A03192B2E033A03192E
:100D1000352E013A03193F2E1F3A0319952D013A3A
:100D200003199F2D492E080083120313A51B992E2A
:100D30009A2E232F6430F6000030F7002508F900C2
:100D40002408F8008A11C1238A117708831203133B
:100D5000A7007608A6002708803AFF0080307F02AF
:100D6000031DB42E01302602031CB72EB82EBF2E51
:100D70008312031326088A11BA228A11C32E103057
:100D80008A11BA228A110A30F6000030F700831265
:100D900003132508F9002408F8008A11C1238A11D9
:100DA0007608FB007708FC006430F6000030F7009E
:100DB000831203132508F9002408F8008A11C123BF
:100DC0008A117708F1007608F000F630F200FF3063
:100DD000F3008A11F9228A1170087B07831203132A
:100DE000A60071080318710A7C07A7008617260859
:100DF0008A11CF228A118312031386130A30F60058
:100E00000030F7002508F9002408F8008A11C123F2
:100E10008A117708F1007608F000F630F200FF3012
:100E2000F3008A11F9228A11831203132408700730
:100E3000A60025080318250A7107A70026088A11AD
:100E4000E4228A11E62F9C30F600FF30F7002508D7
:100E5000F9002408F8008A11C1238A117708831247
:100E60000313A9007608A8002908803AFF00803003
:100E70007F02031D3D2F01302802031C402F412F0C
:100E8000832F11308A11BA228A1183120313280882
:100E90008A11CF228A116430F6000030F7008312E5
:100EA00003132508F9002408F8008A11C1238A11C8
:100EB0007708F1007608F0000A30F2000030F30005
:100EC0008A11F9228A117008FB007108FC00F630C3
:100ED000F600FF30F700831203132508F9002408F9
:100EE000F8008A11C1238A1176087B078312031345
:100EF000A80077080318770A7C07A90028088A1138
:100F0000E4228A11E62F11308A11BA228A11643044
:100F1000F6000030F700831203132508F9002408B7
:100F2000F8008A11C1238A117708F1007608F000D1
:100F30000A30F2000030F3008A11F9228A11700899
:100F4000FB007108FC00F630F600FF30F70083125A
:100F500003132508F9002408F8008A11C1238A1117
:100F600076087B0783120313A80077080318770A13
:100F70007C07A900861728088A11CF228A118312BC
:100F8000031386130A30F6000030F7002508F90035
:100F90002408F8008A11C1238A117708F100760825
:100FA000F0000A30F2000030F3008A11F9228A11B1
:100FB0008312031324087002A8002508031C250AC5
:100FC0007102A90028088A11E4228A1183120313EE
:100FD0000610861006118611061286120613861355
:100FE00008008A11B8228A11BA008A11B9228A111E
:100FF000BB00B601B701B801B90183018A112A2CDF
:02400E0038FF79
:00000001FF
