:02000000F22FDD
:1006540002340034E8340334F3007308C9258312E8
:10066400031305120830F200C930F100F10B382BE6
:10067400F20B382B3D2B8312031305160800F300ED
:100684007308C9258312031305130830F200C93017
:10069400F100F10B4B2BF20B4B2B502B831203135A
:1006A40005170800F3007308C92583120313851383
:1006B4000830F200C930F100F10B5E2BF20B5E2B17
:1006C400632B8312031385170800FE30831603136C
:1006D4008505FE30831203138505A630F000F00B68
:1006E400712B00008316031305141530F000F00B72
:1006F400792B0000831203130508F1009530F000F4
:10070400F00B822B852B71080800F401F501701C95
:100714008C2B8D2B932B7208F4070318F50A73089E
:10072400F50701300310F20DF30DFF3E031D942B6A
:1007340001300310F10CF00CFF3E031D9B2B7008DD
:100744007104031DA62BA72B892B7508F1007408CF
:10075400F0000800F101F201F20183160313051001
:10076400831203130510B62BB72B00008316031353
:100774000514BC2BBD2B0310F10C83120313051CB1
:10078400C42BC52BC62BF1171330F000F00BC82B6C
:10079400CB2B0130F20708307202031CD22BD32B6F
:1007A400AF2B71080800F100F301FE30F40071086A
:1007B400F200F301721CDF2BE02BF42B7408831678
:1007C400031385057408831203138505E92BEA2BAB
:1007D400000074098316031385041730F000F00B2E
:1007E400F12B072C740883160313850574088312F0
:1007F400031385051730F000F00BFE2B74098316E4
:1008040003138504052C062C00000310F20C0130A0
:10081400F30708307302031C102C112CDC2B080086
:10082400FB01F71F162C172C1E2CF609F709F60AE4
:100834000319F70A0130FB00F91F212C222C292C63
:10084400F809F909F80A0319F90A0130FB06FC0151
:10085400FD01760877040319302C312C662C013005
:10086400FA003D2C01300310F60DF70DFF3E031D79
:10087400352C0130FA07F71F402C412C342C013061
:100884000310FC0DFD0DFF3E031D422C7708790279
:10089400031D4E2C76087802031C512C522C592C23
:1008A4007608F8027708031CF903F9027C14013076
:1008B4000310F70CF60CFF3E031D5A2C0130FA020C
:1008C400031D652C662C412C7B0803196A2C6B2CA8
:1008D400702CFC09FD09FC0A0319FD0A7D08F700C8
:1008E4007C08F60008000730831203139F000130D0
:1008F40083160313850086018312031306108610E2
:10090400061186110612861206178613051605139C
:1009140085178312031332083304031D922C932C7E
:10092400A22C672383120313B4000130B4053408E6
:10093400031D9D2C9E2CA22CCC30D5234430D523D2
:10094400831203133503031DA82CA92CB02C1230D9
:100954002E231230412312305423D22CE83038068F
:10096400033003193906031DB82CB92CC02C1030E0
:100974002E231130412310305423D22C360837044F
:10098400031DC52CC62CCC2C3908A1003808A000A6
:10099400C226D22C10302E23113041231030542380
:1009A400013083120313B2070318B30A0030B307EC
:1009B4003308803AFF0080307F02031DE32C65304A
:1009C4003202031CE62CE72C8B2C8312031337080A
:1009D400803AFF0080307F02031DF22C0130360282
:1009E400031CF52CF62CFE2CFF3083120313B607E0
:1009F4000318B70AFF30B7070D2583120313200825
:100A0400F23EB80021080318013EFF3EB900B201CE
:100A1400B3018B2C002883120313B10167238312C3
:100A24000313B4000130B4053408031D1A2D1B2D23
:100A3400C42DCC30D523BE30D523AC23831203136D
:100A4400B000AC2383120313B1003108A2000730B5
:100A54000310A20CFF3E031D2A2D2208AE00013014
:100A6400AE053008AF000F30AF05B00E0F30B00543
:100A7400B10EF030B1057030B1053008B104B501E4
:100A84002E03031D462D472D8E2D3108A200A301F0
:100A94002208F0002308F100F630F200FF30F300E2
:100AA4008723700883120313A4007108A500103073
:100AB400F6000030F7002F08A600A7012608F00072
:100AC4002708F1000A30F2000030F3008723710890
:100AD400F9007008F8001224760883120313240224
:100AE400A8007708031C770A2502A9002808003EFD
:100AF400AA0029080318013E053EAB00AA09AB0968
:100B0400AA0A0319AB0A2A08AC002B08AD002D0869
:100B1400A1002C08A000C82D3108A200A3012208BE
:100B2400F0002308F1000A30F2000030F3008723BC
:100B3400700883120313A4007108A5001030F60096
:100B44000030F7002F08A600A7012608F0002708A8
:100B5400F1000A30F2000030F30087237108F90035
:100B64007008F80012247608831203132407AC00DB
:100B740077080318770A2507AD002D08A1002C0873
:100B8400A000C82D0130B500A001A1010800F000AB
:100B9400892E83120313061086100611861106127D
:100BA40086120613C12E8312031306108610061133
:100BB4008611061286120617C12E83120313061419
:100BC400861406158615061686160613C12E83127C
:100BD40003130610861406158611061286120613D0
:100BE400C12E8312031306148614061186150616E5
:100BF40086120617C12E83120313061486140615D3
:100C04008615061286120617C12E831203130610C8
:100C1400861406158611061286160617C12E83122F
:100C24000313061486100615861506128616061773
:100C3400C12E831203130614861006158615061694
:100C440086160617C12E831203130614861406157E
:100C54008611061286120613C12E8312031306147C
:100C6400861406158615061686160617C12E8312D7
:100C7400031306148614061586150612861606171F
:100C8400C12E831203130614861406158611061644
:100C940086160617C12E8312031306108614061532
:100CA4008615061686120617C12E83120313061420
:100CB400861406118611061286160617C12E831293
:100CC40003130610861006158611061686160617D7
:100CD400C12E8312031306108610061586150616F8
:100CE40086120617C12E83120313061086100611EE
:100CF4008615061686160617C12E831203130614CC
:100D0400861006118615061686160617C12E70085B
:100D1400003A0319DF2D013A0319E92D033A0319A7
:100D2400F32D013A0319FD2D073A0319072E013A51
:100D34000319112E033A03191B2E013A0319252E08
:100D44000F3A03192F2E013A0319392E033A0319C6
:100D5400432E013A03194D2E073A0319572E013A2F
:100D64000319612E033A03196B2E013A0319752EE8
:100D74001F3A0319CB2D013A0319D52D7F2E0800F4
:100D840083120313A11BC72EC82E3D2F6430F60017
:100D94000030F7002108F9002008F8001224770831
:100DA40083120313A5007608A4002508803AFF00E7
:100DB40080307F02031DE02E01302402031CE32E49
:100DC400E42EE92E8312031324082E23EB2E103075
:100DD4002E230A30F6000030F70083120313210893
:100DE400F9002008F8001224760883120313A200E5
:100DF4007708A3006430F6000030F7002108F900FA
:100E04002008F80012247708F1007608F000F63084
:100E1400F200FF30F30087237008831203132207C4
:100E2400A40071080318710A2307A5008617240873
:100E340041238312031386130A30F6000030F700AF
:100E44002108F9002008F80012247708F100760838
:100E5400F000F630F200FF30F3008723831203130F
:100E640020087007A40021080318210A7107A500AF
:100E740024085423E72F9C30F600FF30F7002108A4
:100E8400F9002008F8001224770883120313A7003E
:100E94007608A6002708803AFF0080307F02031DF1
:100EA400552F01302602031C582F592F8F2F113034
:100EB4002E2383120313260841236430F6000030E6
:100EC400F700831203132108F9002008F800122404
:100ED4007708F1007608F0000A30F2000030F300E1
:100EE4008723700883120313A2007108A300F6304D
:100EF400F600FF30F7002108F9002008F80012245A
:100F04007608831203132207A60077080318770ACA
:100F14002307A70026085423E22F11302E23643020
:100F2400F6000030F700831203132108F9002008AB
:100F3400F80012247708F1007608F0000A30F20075
:100F44000030F3008723700883120313A200710892
:100F5400A300F630F600FF30F7002108F90020085E
:100F6400F80012247608831203132207A6007708D8
:100F74000318770A2307A70086172608412383123C
:100F8400031386130A30F6000030F7002108F90035
:100F94002008F80012247708F1007608F0000A30DF
:100FA400F2000030F3008723831203132008700239
:100FB400A6002108031C210A7102A7002608542355
:100FC40083120313051605178517831203130610DE
:100FD400861006118611061286120613861308005F
:100FE4002A23B6002B23B7002C23B8002D23B900E5
:0C0FF400B201B301B401B5018301752CFA
:08400000FF3FFF3FFF3FFF3FC0
:02400E00183F59
:00000001FF
