:020000040000FA
:02000000F22FDD
:1005C40001340034E8340334F5007508C12583127E
:1005D400031305120830F400C930F300F30BF02ABA
:1005E400F40BF02AF52A8312031305160800F5000C
:1005F4007508C1258312031305130830F400C930AC
:10060400F300F30B032BF40B032B082B83120313BC
:1006140005170800F5007508C12583120313851317
:100624000830F400C930F300F30B162BF40B162B2F
:100634001B2B8312031385170800F401F501701CAA
:10064400242B252B2B2B7208F4070318F50A7308A7
:10065400F50701300310F20DF30DFF3E031D2C2BA3
:1006640001300310F10CF00CFF3E031D332B700816
:100674007104031D3E2B3F2B212B7508F1007408D8
:10068400F0000800FE30F00070088316031385059F
:10069400FE30F0007008831203138505A630F000C5
:1006A400F00B522B00008316031305141530F000D1
:1006B400F00B5A2B0000831203130508F000700896
:1006C400F1009530F000F00B652B682B71080800E1
:1006D400F101F201F20183160313051083120313CF
:1006E4000510742B752B00008316031305147A2B45
:1006F4007B2B0310F10C83120313051C822B832B19
:10070400842BF1171330F000F00B862B892B01306A
:10071400F0007008F20708307202031C922B932B2E
:100724006D2B71080800F100F301FE30F000700831
:10073400F4007108F0007008F200F301721CA32B9E
:10074400A42BBE2B7408F0007008831603138505D0
:100754007408F0007008831203138505B12BB22BC3
:1007640000007409F0007008831603138504173021
:10077400F000F00BBB2BD72B7408F0007008831625
:10078400031385057408F0007008831203138505AC
:100794001730F000F00BCC2B7409F00070088316AE
:1007A40003138504D52BD62B00000310F20C013063
:1007B400F0007008F30708307302031CE22BE32BEC
:1007C400A02B080083120313A101F71FEA2BEB2BC4
:1007D400F22BF609F709F60A0319F70AA101A10A8F
:1007E400F91FF52BF62BFF2BF809F909F80A031961
:1007F400F90A0130FA007A08A106A201A3017608D9
:1008040077040319062C072C3E2CA001A00A152CF2
:1008140001300310F60DF70DFF3E031D0B2C0130C4
:10082400FA007A08A007F71F182C192C0A2C01309B
:100834000310A20DA30DFF3E031D1A2C77087902A5
:10084400031D262C76087802031C292C2A2C312C13
:100854007608F8027708031CF903F9022214013020
:100864000310F70CF60CFF3E031D322C0130A002DE
:10087400031D3D2C3E2C192C21080319422C432C1A
:10088400482CA209A309A20A0319A30A2308F70002
:100894002208F60008000730831203139F0001307A
:1008A4008316031385008601831203130610861032
:1008B40006118611061286120617861305160513ED
:1008C40085178312031336083704031D6A2C6B2C17
:1008D4007B2C44230139FD007D0883120313B800E7
:1008E4003808031D762C772C7B2CCC309523443090
:1008F4009523831203133903031D812C822C892C25
:100904001230E6221230F92212300C23AB2CE830DC
:100914003C06033003193D06031D912C922C992C9F
:100924001030E6221130F92210300C23AB2C3A0897
:100934003B04031D9E2C9F2CA52C3D08A5003C08C0
:10094400A400C226AB2C1030E6221130F92210305C
:100954000C23013083120313B6070318B70A0030BF
:10096400B7073708803AFF0080307F02031DBC2C94
:1009740065303602031CBF2CC02C632C8312031376
:100984003B08803AFF0080307F02031DCB2C0130EE
:100994003A02031CCE2CCF2CE62CFF308312031317
:1009A400BA070318BB0AFF30BB070030A400A50038
:1009B400FA24831203132408CF3EBC00250803182D
:1009C400013EFF3EBD00F62C003083120313A40049
:1009D400A500FA24831203132408DE3EBC00250874
:1009E4000318013EFF3EBD00B601B701632C002889
:1009F40083120313B5014423013983120313A600A0
:100A04002608B8003808031D082D092DBC2DCC304C
:100A14009523BE3095236A2383120313A600260868
:100A2400B4006A2383120313A6002608B500350810
:100A3400A60007300310A60CFF3E031D1C2D26083C
:100A44000139A7002708B20034080F39A600260888
:100A5400B300B40E0F30B405B50EF030B5057030E8
:100A6400A6002608B5053408A6002608B504B90171
:100A74003203031D3E2D3F2D862D3508A600A70108
:100A84002608F0002708F100F630F200FF30F300EA
:100A94001F23700883120313A8007108A9001030E3
:100AA400F6000030F7003308AA00AB012A08F00072
:100AB4002B08F1000A30F2000030F3001F23710804
:100AC400F9007008F800E42376088312031328025F
:100AD400AC007708031C770A2902AD002C08003EFD
:100AE400AE002D080318013E053EAF00AE09AF0964
:100AF400AE0A0319AF0A2E08B0002F08B10031085E
:100B0400A5003008A400C02D3508A600A7012608BA
:100B1400F0002708F1000A30F2000030F3001F2330
:100B2400700883120313A8007108A9001030F6009E
:100B34000030F7003308AA00AB012A08F0002B08A4
:100B4400F1000A30F2000030F3001F237108F900AD
:100B54007008F800E4237608831203132807B00012
:100B640077080318770A2907B1003108A50030086F
:100B7400A400C02DB901B90AA401A5010800F2001E
:100B8400812E831203130610861006118611061295
:100B940086120613C12E8312031306108610061143
:100BA4008611061286120617C12E83120313061429
:100BB400861406158615061686160613C12E83128C
:100BC40003130610861406158611061286120613E0
:100BD400C12E8312031306148614061186150616F5
:100BE40086120617C12E83120313061486140615E3
:100BF4008615061286120617C12E831203130610D9
:100C0400861406158611061286160617C12E83123F
:100C14000313061486100615861506128616061783
:100C2400C12E8312031306148610061586150616A4
:100C340086160617C12E831203130614861406158E
:100C44008611061286120613C12E8312031306148C
:100C5400861406158615061686160617C12E8312E7
:100C6400031306148614061586150612861606172F
:100C7400C12E831203130614861406158611061654
:100C840086160617C12E8312031306108614061542
:100C94008615061686120617C12E83120313061430
:100CA400861406118611061286160617C12E8312A3
:100CB40003130610861006158611061686160617E7
:100CC400C12E831203130610861006158615061608
:100CD40086120617C12E83120313061086100611FE
:100CE4008615061686160617C12E831203130614DC
:100CF400861006118615061686160617C12E72086A
:100D0400F000F1017108003A0319892E772E70085A
:100D1400003A0319D72D013A0319E12D033A0319B7
:100D2400EB2D013A0319F52D073A0319FF2D013A6A
:100D34000319092E033A0319132E013A03191D2E20
:100D44000F3A0319272E013A0319312E033A0319D6
:100D54003B2E013A0319452E073A03194F2E013A47
:100D64000319592E033A0319632E013A03196D2E00
:100D74001F3A0319C32D013A0319CD2D772E08000C
:100D840083120313A51BC72EC82E3D2F6430F60013
:100D94000030F7002508F9002408F800E423770858
:100DA40083120313A7007608A6002708803AFF00E1
:100DB40080307F02031DE02E01302602031CE32E47
:100DC400E42EE92E831203132608E622EB2E1030BC
:100DD400E6220A30F6000030F700831203132508D8
:100DE400F9002408F800E4237608FB007708FC00E7
:100DF4006430F6000030F700831203132508F9006D
:100E04002408F800E4237708F1007608F000F630AF
:100E1400F200FF30F3001F2370087B0783120313D3
:100E2400A60071080318710A7C07A7008617260814
:100E3400F9228312031386130A30F6000030F700F8
:100E44002508F9002408F800E4237708F10076085F
:100E5400F000F630F200FF30F3001F238312031377
:100E640024087007A60025080318250A7107A7009F
:100E740026080C23E72F9C30F600FF30F7002508E6
:100E8400F9002408F800E423770883120313A90067
:100E94007608A8002908803AFF0080307F02031DED
:100EA400552F01302802031C582F592F8F2F113032
:100EB400E622831203132808F9226430F600003076
:100EC400F700831203132508F9002408F800E4232B
:100ED4007708F1007608F0000A30F2000030F300E1
:100EE4001F237008FB007108FC00F630F600FF3089
:100EF400F700831203132508F9002408F800E423FB
:100F040076087B0783120313A80077080318770A6F
:100F14007C07A90028080C23E22F1130E622643054
:100F2400F6000030F700831203132508F9002408A3
:100F3400F800E4237708F1007608F0000A30F200A4
:100F44000030F3001F237008FB007108FC00F6302A
:100F5400F600FF30F700831203132508F900240874
:100F6400F800E42376087B0783120313A8007708AC
:100F74000318770A7C07A90086172808F922831228
:100F8400031386130A30F6000030F7002508F90031
:100F94002408F800E4237708F1007608F0000A300A
:100FA400F2000030F3001F2383120313240870029D
:100FB400A8002508031C250A7102A90028080C238F
:100FC40083120313051605178517831203130610DE
:100FD400861006118611061286120613861308005F
:100FE400E222BA00E322BB00E422BC00E522BD00F9
:0C0FF400B601B701B801B90183014D2C12
:02400E0018FF99
:00000001FF
