:020000040000FA
:040000008A11F22F40
:10052600E8340334F50075088A1194258A1183127C
:10053600031305120830F400C930F300F30BA12AA7
:10054600F40BA12AA62A8312031305160800F50048
:1005560075088A1194258A1183120313051308302E
:10056600F400C930F300F30BB62AF40BB62ABB2A03
:100576008312031305170800F50075088A119425E0
:100586008A118312031385130830F400C930F3006F
:10059600F30BCB2AF40BCB2AD02A8312031385172D
:1005A6000800831203130610861006118611061220
:1005B600861206130512051385130830F100C9309B
:1005C600F000F00BE42AF10BE42AE92A8312031364
:1005D6000516051785170800F401F501701CF42AA5
:1005E600F52AFB2A7208F4070318F50A7308F507BB
:1005F60001300310F20DF30DFF3E031DFC2A0130FE
:100606000310F10CF00CFF3E031D032B7008710460
:10061600031D0E2B0F2BF12A7508F1007408F0004C
:100626000800FE30F0007008831603138505FE30BF
:10063600F0007008831203138505A630F000F00B56
:10064600222B00008316031305141530F000F00B5F
:100656002A2B0000831203130508F0007008F1002E
:100666009530F000F00B352B382B71080800F1019E
:10067600F201F2018316031305108312031305100A
:10068600442B452B00008316031305144A2B4B2BD2
:100696000310F10C83120313051C522B532B542BFE
:1006A600F1171330F000F00B562B592B0130F000E8
:1006B6007008F20708307202031C622B632B3D2B75
:1006C60071080800F100F301FE30F0007008F40034
:1006D6007108F0007008F200F301721C732B742B82
:1006E6008E2B7408F00070088316031385057408B2
:1006F600F0007008831203138505812B822B0000FE
:100706007409F00070088316031385041730F0008F
:10071600F00B8B2BA72B7408F000700883160313BD
:1007260085057408F00070088312031385051730D9
:10073600F000F00B9C2B7409F0007008831603136D
:100746008504A52BA62B00000310F20C0130F00047
:100756007008F30708307302031CB22BB32B702BFF
:10076600080083120313A101F71FBA2BBB2BC22B60
:10077600F609F709F60A0319F70AA101A10AF91FF2
:10078600C52BC62BCF2BF809F909F80A0319F90A64
:100796000130FA007A08A106A201A30176087704BF
:1007A6000319D62BD72B0E2CA001A00AE52B01305E
:1007B6000310F60DF70DFF3E031DDB2B0130FA008B
:1007C6007A08A007F71FE82BE92BDA2B0130031074
:1007D600A20DA30DFF3E031DEA2B77087902031D28
:1007E600F62B76087802031CF92BFA2B012C7608D7
:1007F600F8027708031CF903F902221401300310EA
:10080600F70CF60CFF3E031D022C0130A002031D5F
:100816000D2C0E2CE92B21080319122C132C182C45
:10082600A209A309A20A0319A30A2308F7002208AA
:10083600F60008000730831203139F008316031384
:1008460085018A1114238A110139FD007D0883125E
:100856000313BB003B08031D312C322C3A2CCC3041
:100866008A1165238A1144308A1165238A118316F9
:10087600031386018A11D4228A11831203133608C0
:100886003704031D472C482C5E2C8A1114238A1129
:100896000139FD007D0883120313BB003B08031DCD
:1008A600552C562C5E2CCC308A1165238A11443087
:1008B6008A1165238A11831203133803031D642CDE
:1008C600652C722C12308A1195228A1112308A11E7
:1008D600AA228A1112308A11BF228A118F2CE8307F
:1008E6003906033003193A06031D7A2C7B2C882C13
:1008F60010308A1195228A1110308A11AA228A1183
:1009060010308A11BF228A118F2C3A08A5003908A7
:10091600A4008A1195268A11013083120313B607A3
:100926000318B70A0030B7073708803AFF0080304F
:100936007F02031DA02C33303602031CA32CA42CEB
:10094600402C003083120313A400A5008A11B7249B
:100956008A11831203132508BA002408B900B601C8
:10096600B701402C8A11002883120313B5018A119E
:1009760014238A11013983120313A6002608BB002B
:100986003B08031DC72CC82C8F2DCC308A1165233C
:100996008A11BE308A1165238A118A113A238A1177
:1009A60083120313A6002608B4008A113A238A117B
:1009B60083120313A6002608B5003508A6000730E3
:1009C6000310A60CFF3E031DE32C26080139A700E1
:1009D6002708B20034080F39A6002608B300B40E63
:1009E6000F30B405B50EF030B5057030A6002608F8
:1009F600B5053408A6002608B504B8013203031D60
:100A0600052D062D532D3508A600A7012608F00052
:100A16002708F100F630F200FF30F3008A11EF22CA
:100A26008A11700883120313A8007108A9001030F8
:100A3600F6000030F7003308AA00AB012A08F000E0
:100A46002B08F1000A30F2000030F3008A11EF2281
:100A56008A117108F9007008F8008A11B4238A1106
:100A66007608831203132802AC007708031C770A62
:100A76002902AD002C08003EAE002D080318013EE9
:100A8600053EAF00AE09AF09AE0A0319AF0A2E083C
:100A9600B0002F08B1003108A5003008A400932D3E
:100AA6003508A600A7012608F0002708F1000A303D
:100AB600F2000030F3008A11EF228A1170088312C7
:100AC6000313A8007108A9001030F6000030F700E3
:100AD6003308AA00AB012A08F0002B08F1000A30FF
:100AE600F2000030F3008A11EF228A117108F90032
:100AF6007008F8008A11B4238A117608831203134A
:100B06002807B00077080318770A2907B1003108CB
:100B1600A5003008A400932DB801B80AA401A501C8
:100B26000800F200542E83120313061086100611D5
:100B36008611061286120613942E831203130610CC
:100B4600861006118611061286120617942E831237
:100B5600031306148614061586150616861606133E
:100B6600942E831203130610861406158611061298
:100B760086120613942E8312031306148614061186
:100B86008615061686120617942E8312031306146C
:100B9600861406158615061286120617942E8312DB
:100BA60003130610861406158611061286160617F6
:100BB600942E831203130614861006158615061244
:100BC60086160617942E831203130614861006152E
:100BD6008615061686160617942E83120313061418
:100BE600861406158611061286120613942E831293
:100BF600031306148614061586150616861606179A
:100C0600942E8312031306148614061586150612EF
:100C160086160617942E83120313061486140615D9
:100C26008611061686160617942E831203130610CF
:100C3600861406158615061686120617942E831236
:100C46000313061486140611861106128616061755
:100C5600942E8312031306108610061586110616A7
:100C660086160617942E8312031306108610061591
:100C76008615061686120617942E8312031306107F
:100C8600861006118615061686160617942E8312EA
:100C96000313061486100611861506168616061701
:100CA600942E7208F000F1017108003A03195C2EC7
:100CB6004A2E7008003A0319AA2D013A0319B42DD9
:100CC600033A0319BE2D013A0319C82D073A031931
:100CD600D22D013A0319DC2D033A0319E62D013A08
:100CE6000319F02D0F3A0319FA2D013A0319042EB0
:100CF600033A03190E2E013A0319182E073A03195F
:100D0600222E013A03192C2E033A0319362E013AE4
:100D16000319402E1F3A0319962D013A0319A02DE7
:100D26004A2E080083120313A51B9A2E9B2E242FEE
:100D36006430F6000030F7002508F9002408F800B2
:100D46008A11B4238A11770883120313A700760841
:100D5600A6002708803AFF0080307F02031DB52ECB
:100D660001302602031CB82EB92EC02E831203139F
:100D760026088A1195228A11C42E10308A119522CE
:100D86008A110A30F6000030F70083120313250893
:100D9600F9002408F8008A11B4238A117608FB00AA
:100DA6007708FC006430F6000030F7008312031366
:100DB6002508F9002408F8008A11B4238A11770857
:100DC600F1007608F000F630F200FF30F3008A11E9
:100DD600EF228A1170087B0783120313A60071089D
:100DE6000318710A7C07A700861726088A11AA220B
:100DF6008A118312031386130A30F6000030F700B7
:100E06002508F9002408F8008A11B4238A11770806
:100E1600F1007608F000F630F200FF30F3008A1198
:100E2600EF228A118312031324087007A6002508EF
:100E36000318250A7107A70026088A11BF228A11FE
:100E4600E72F9C30F600FF30F7002508F90024084C
:100E5600F8008A11B4238A11770883120313A900B4
:100E66007608A8002908803AFF0080307F02031D1B
:100E76003E2F01302802031C412F422F842F1130B0
:100E86008A1195228A118312031328088A11AA222D
:100E96008A116430F6000030F70083120313250828
:100EA600F9002408F8008A11B4238A117708F100A2
:100EB6007608F0000A30F2000030F3008A11EF22C3
:100EC6008A117008FB007108FC00F630F600FF304E
:100ED600F700831203132508F9002408F8008A1185
:100EE600B4238A1176087B0783120313A8007708B8
:100EF6000318770A7C07A90028088A11BF228A11DD
:100F0600E72F11308A1195228A116430F6000030DD
:100F1600F700831203132508F9002408F8008A1144
:100F2600B4238A117708F1007608F0000A30F2003F
:100F36000030F3008A11EF228A117008FB00710855
:100F4600FC00F630F600FF30F70083120313250885
:100F5600F9002408F8008A11B4238A1176087B0761
:100F660083120313A80077080318770A7C07A900E1
:100F7600861728088A11AA228A1183120313861358
:100F86000A30F6000030F7002508F9002408F800BA
:100F96008A11B4238A117708F1007608F0000A3026
:100FA600F2000030F3008A11EF228A118312031334
:100FB60024087002A8002508031C250A7102A9004E
:100FC60028088A11BF228A1183120313061086107D
:100FD60006118611061286120613861308008A1158
:100FE60093228A11B9008A1194228A11BA00B60195
:0A0FF600B701B80183018A111D2C18
:02400E0018FF99
:00000001FF
